:0E0000000C944E000C9400000C9400000C9424
:10000E0000000C9400000C9400000C9400000C9462
:10001E0000000C9400000C9400000C9400000C9452
:10002E0000000C9400000C9400000C9400000C9442
:10003E0000000C9400000C9400000C9400000C9432
:10004E0000000C9400000C9400000C9400000C9422
:10005E0000000C9400000C9400004A2E42454E44C1
:10006E0041203A20004A4152414B203A2000436D34
:10007E00000080C001002D4E414E00494E4600004A
:10008E000200100380000100140382000000F894A7
:10009E00EE27EFBBF1E0F5BFE5BFF8E1A895A4B7F9
:1000AE00A77FA4BFF0936000E09360008DE0A2E014
:1000BE00BB27ED938A95E9F780E098E0A0E0B1E0E8
:1000CE00ED930197E9F7EEE8F0E0859195910097B1
:1000DE0061F0A591B59105901590BF01F0010590C5
:1000EE000D920197E1F7FB01F0CFE0E0EEBBEFEFF1
:1000FE00EDBFE8E0EEBFC0E0D3E00C94BD003324CA
:10010E004424552466242E9A80E58A95F1F72E987C
:10011E008BE08A95F1F71F9BFECF1F9B09C0E32D45
:10012E00F42DE52DF62D31965E2E6F2E3197F5CFEF
:10013E00E32DEF5FAE2EEA2D0895E52DF62D0E94EC
:10014E002A030E946102ADE8B2ED85EA9CE30E94AB
:10015E008F02DF01CB01E0E0F0E060E070E40E948E
:10016E00DD020E9428029E2EE92D0895E0E8E0931C
:10017E006100E0E0E0936100E5B9E0E4E4B9E0E0BD
:10018E00E8B9E7B9EBB9EAB9E4BDE5BDE6BDE7BD4F
:10019E00E8BDE0938000E0938100E0938500E0935A
:1001AE008400E0938700E0938600E0938900E0935B
:1001BE008800E0938B00E0938A00E093B600E09312
:1001CE00B000E093B100E093B200E093B300E0938F
:1001DE00B400E0936900EDBBE0936800E0936E001D
:1001EE00E0936F00E0937000E093C100E0E8E0BFA1
:1001FE00E0E0E0937B00E0937F00E0937A00ECBDBB
:10020E00E093BC00A0E1A9D07ADF8E2E78DF7E2E9F
:10021E0061D0E0E0EA93A0E050D0A8E6B0E08AD04A
:10022E00E0E0EA93A1E049D0A3E7B0E083D0E9E0B3
:10023E00EA93A0E042D0A0E0B3E06DD0EDE0EA9307
:10024E00A1E03BD0ACE7B0E075D0A8EEB3E00E94E1
:10025E00F101DACFFFCFAA93E881E07111F0439A52
:10026E0001C04398E881E07211F0449A01C04498AD
:10027E00E881E07411F0459A01C04598E881E07874
:10028E0011F0469A01C046988BE08A95F1F7429A92
:10029E008BE18A95F1F742988BE18A95F1F78AC046
:1002AE00AA93A881D8DFE881E295E883A881D3DFFD
:1002BE0088EC90E00197F1F77DC0AA93E881F0E019
:1002CE00E05FFC4FE081A981AE0FEADFC980B88004
:1002DE0022960895A2E00E94E301ACE0E1DFA1E0E6
:1002EE000E94E301E0E0BE2ECE2E0895AA93A881CF
:1002FE00AA3011F0CE1448F0E0E0EA93B394AB2D9F
:10030E00DCDFA881AA3009F455C0C394409AA881B5
:10031E00C7DF40984FC0BA93AA931A93A981BA81A6
:10032E00ED91A983BA831E2FE03019F0A12FDEDFE5
:10033E00F5CF10C0BA93AA931A93E981FA81319638
:10034E00E983FA833197E4911E2FE03019F0A12F43
:10035E00CDDFF3CF188123960895AA933B9A3C9A4A
:10036E003D9A3E9A3A9A389A399A429840984198CC
:10037E00E880E881E058E0931203E881E054E093CE
:10038E001303A4E1B0E00E94F1010E94E9010E9472
:10039E00E9010E94E901A0E25EDF80E991E00197A8
:1003AE00F1F7A8E27DDFA4E07BDFA5E879DFA6E028
:1003BE0077DF90DF219608950E945701A3E0B0E009
:1003CE000C94F101A0E30E94320180E991E00197C3
:1003DE00F1F70895109639F080EA9FE00197F1F752
:1003EE00A8951197C9F70895552342F4503811F482
:1003FE00E0FF04C03196691F791F6BF050E8572754
:10040E0011F45F9373C05F3F31F0660F000C579588
:10041E006795752F08955F9300200AF073C06CC026
:10042E0050E8192E1522880F991F9527550F87957D
:10043E0050E8072E0522660F771F7527550F679513
:10044E000895689401C0E8945F93F2DF703818F055
:10045E007F3F08F44BC056E1571BAAF45195583014
:10046E000EF4593030F0EFEFFFEF6FEF7FE777F9D3
:10047E001AC077275523B9F0EE0FFF1F661F771F9F
:10048E005A95D1F710C07727583028F0EF2FF62F56
:10049E00672F5850F9CF552331F076956795F7951C
:1004AE00E7955A95D1F700200AF4C5D05F910895CB
:1004BE00689401C0E894309760407040B1F0002419
:1004CE0026F0772312F40094B6D0172E7EE1112079
:1004DE0032F07A95EE0FFF1F661F111CF9CFEF2F2A
:1004EE00F62F612D5F938ADF5F910895EE27FF2728
:1004FE00662777275F910895EFEFFFEF6FE77FEFA6
:10050E005F910895EFEFFFEF6FE77FE75F9108953B
:10051E005F9386DF703851F3903841F301240894CD
:10052E00791F23F41CF300203AF3ECCF0F921F93A4
:10053E002F933F934F93112722279927689FA0014E
:10054E008F9F302D410D591F6B9F300D411D591F2F
:10055E008E9F27D0BF9F25D06A9F23D0BE9F1DD0D0
:10056E00AF9F1BD0AE9F110D291F391F491F591F59
:10057E00E32FF42F652F522F4F913F912F911F9103
:10058E000F9066232AF0550FEE1FFF1F661F02C045
:10059E0073954BF229DF5F910895100D211D391FC0
:1005AE0002C0200D311D491F591F08955F9338DF7A
:1005BE00703821F411200AF49FCFA4CF903809F49B
:1005CE0095CF01240894970B1BF4D4F30020F3CF9E
:1005DE00792F1F932F933F934F9311241127222787
:1005EE0033274427552790E2AE17BF0786074107EA
:1005FE0030F0AE1BBF0B860B410B089401C08894E4
:10060E00551F221F331F111CAA1FBB1F881F441FFB
:10061E009A9551F7F901612D4F913F912F911F91AD
:10062E00662332F0550FEE1FFF1F661F7A9543F2B9
:10063E00DBDE5F910895F09560957095E195FF4F23
:10064E006F4F7F4F08956F2F660F660B762F0895AD
:00000001FF
